:020000020000FC
:1020000007EB0093E50000E10093E6000FE000938A
:10201000E70000E80093E40008950F921F920F93E9
:102020001F932F933F93AF93BF93EF93FF93125060
:10203000003249F00A3220F0013610F40C942410DA
:1020400000E60C9424100CE20A52000F000FE4E9A1
:10205000F0E20024E00FF01DACEEBB27212F169517
:10206000A10F34E000EF20FD0295059020FD0294C1
:102070001C90102210281C9215963A95B1F7FF91EA
:10208000EF91BF91AF913F912F911F910F911F90B1
:102090000F900895080A0A0E00080A0200000000C6
:1020A00000000A0001050A000800000409050505F2
:1020B0000801010001010E0101010B0100050B00E7
:1020C00001040B0101040F010101010001050F01D1
:1020D00001050B01000200040000000008000008D8
:1020E00000000A01000200040000000000000000DF
:1020F00001050F000109090301040401010901039D
:1021000001040E0101040E0001040D0100050F0081
:10211000000800020001050108040608000404018B
:1021200008070500000705080105050101050E0067
:102130000105050901050E08010200090108000258
:1021400000050501080404040005050C0802000C44
:102150000802000209000005010404010002000851
:10216000010101010000000000000001090F0F0F34
:040000000C940D014E
:040014000C943C020A
:1002000041424344450053544152540057494E4ED5
:10021000455200004C4F534552000FEF0DBF04E014
:100220000EBF0E9400100E942E020E940C0200E0ED
:100230000093000112E000E3E6E0F2E0059112E035
:100240000E94EF010E941C024130E1F70E941C0253
:100250004030E1F70E944701E0E0F2E012E0059152
:100260000030D1F30E943A010E941C02413019F182
:100270000C94300112E00E940D1014E00E940D1049
:1002800016E00E940D1005910E94F601089512E0FB
:1002900000E20E940D1013950E940D1013950E940C
:1002A0000D1013950E940D1013950E940D101395BB
:1002B0000E940D100895602F0E941C024030E1F74B
:1002C0000E94F6010C946801E0E0F2E012E0059172
:1002D0000030D1F30E9472010E941C02413061F093
:1002E0000C94680114E00E940D1016E00E940D109D
:1002F00005910E94F6010895702F0E941C02403063
:10030000E1F70E94F6010C948901E0E0F2E012E0CE
:1003100005910030D1F30E9493010E941C024130EC
:1003200059F00C94890116E00E940D1005910E946D
:10033000F60108950C941C01802F0E941C0240308D
:10034000E1F70E94F6010E944701671731F578171F
:1003500021F50C94AB01ECE0F2E0059112E00E9473
:10036000EF010E94F6010E9447010E94F601ECE0B5
:10037000F2E0059112E00E94EF010E94F6010E9456
:1003800047010E94F601ECE0F2E0059112E00E94C4
:10039000EF010E94F6010C94FE01E4E1F2E0059108
:1003A00012E00E94EF010E94F6010E9447010E94A4
:1003B000F601E4E1F2E0059112E00E94EF010E94F3
:1003C000F6010E9447010E94F601E4E1F2E0059186
:1003D00012E00E94EF010E94F6010C94FE010E94BF
:1003E0000D10139505910030D1F70895509100013B
:1003F0005130E1F750E05093000108950C94000251
:100400000E941C024130E1F70E941C024030E1F7DB
:100410000E9447010C949A011DB1137F0EB10C602C
:100420001DB90EB900E000937F0014B11F7205B131
:10043000006D14B905B908950F931F9303B14FEFE1
:100440004A95F1F713B1007110710117B9F740E047
:10045000003009F441E01F910F910895F89408E0ED
:100460000093B60001E00093700004E00093B00038
:1004700000270DBB789408950F930FB70F9301E0F9
:0C048000009300010F910FBF0F91189521
:00000001FF
