:020000020000FC
:1020000007EB0093E50000E10093E6000FE000938A
:10201000E70000E80093E40008950F921F920F93E9
:102020001F932F933F93AF93BF93EF93FF93125060
:10203000003249F00A3220F0013610F40C942410DA
:1020400000E60C9424100CE20A52000F000FE4E9A1
:10205000F0E20024E00FF01DACEEBB27212F169517
:10206000A10F34E000EF20FD0295059020FD0294C1
:102070001C90102210281C9215963A95B1F7FF91EA
:10208000EF91BF91AF913F912F911F910F911F90B1
:102090000F900895080A0A0E00080A0200000000C6
:1020A00000000A0001050A000800000409050505F2
:1020B0000801010001010E0101010B0100050B00E7
:1020C00001040B0101040F010101010001050F01D1
:1020D00001050B01000200040000000008000008D8
:1020E00000000A01000200040000000000000000DF
:1020F00001050F000109090301040401010901039D
:1021000001040E0101040E0001040D0100050F0081
:10211000000800020001050108040608000404018B
:1021200008070500000705080105050101050E0067
:102130000105050901050E08010200090108000258
:1021400000050501080404040005050C0802000C44
:102150000802000209000005010404010002000851
:10216000010101010000000000000001090F0F0F34
:040000000C940D014E
:100200004E45425544452D4C4920505253455420AB
:100210004E455A4D4F4B4E454D000FEF0DBF04E07C
:100220000EBF0E940010E0E0F2E0C4E040E050E0C9
:1002300060E070E080E090E027E012E0D2E00C9413
:100240003001A5E0BFEA1AEF1A95F1F7BA95D9F790
:10025000AA95C1F7903021F4203051F40C940D018F
:10026000452F562F672F782F892F95910C943C019D
:100270000C9477010C942101D2E0042F003019F086
:100280001D2F0E940D10D395052F003019F01D2F42
:100290000E940D10D395062F003019F01D2F0E94DB
:1002A0000D10D395072F003019F01D2F0E940D104F
:1002B000C43001F3D395082F003019F01D2F0E9490
:1002C0000D10C530B9F2D395092F003019F01D2F4C
:1002D0000E940D10903011F00C94210116E090E274
:1002E000092F1D2F0E940D1090E00C9421012A95DA
:1002F000452F562F672F782F80E290E2D2E0042F0F
:100300001D2F0E940D10D395052F1D2F0E940D103B
:10031000D395062F1D2F0E940D10D395072F1D2F4B
:100320000E940D10D395082F1D2F0E940D10D395FC
:0E033000092F1D2F0E940D1090E00C9421014A
:00000001FF
